{
  "_format": "hh-sol-artifact-1",
  "contractName": "Digiauction",
  "sourceName": "contracts/Digiauction.sol",
  "abi": [
    {
      "inputs": [],
      "stateMutability": "nonpayable",
      "type": "constructor"
    },
    {
      "inputs": [
        {
          "internalType": "uint256",
          "name": "id",
          "type": "uint256"
        }
      ],
      "name": "bid",
      "outputs": [],
      "stateMutability": "payable",
      "type": "function"
    },
    {
      "inputs": [],
      "name": "contractBalance",
      "outputs": [
        {
          "internalType": "uint256",
          "name": "",
          "type": "uint256"
        }
      ],
      "stateMutability": "nonpayable",
      "type": "function"
    },
    {
      "inputs": [
        {
          "internalType": "uint256",
          "name": "id",
          "type": "uint256"
        }
      ],
      "name": "digimonOffers",
      "outputs": [
        {
          "internalType": "uint256",
          "name": "",
          "type": "uint256"
        },
        {
          "internalType": "uint256",
          "name": "",
          "type": "uint256"
        },
        {
          "internalType": "address",
          "name": "",
          "type": "address"
        }
      ],
      "stateMutability": "view",
      "type": "function"
    }
  ],
  "bytecode": "0x608060405234801561001057600080fd5b5060016000806101000a81548160ff02191690831515021790555061003961003e60201b60201c565b61035c565b6000423360405160200161005392919061018b565b6040516020818303038152906040528051906020012060001c90506000600190505b6101008111610159576040518060600160405280600181526020016101f46103e8846100a191906101b7565b856100ac91906102c0565b6100b691906101b7565b81526020013373ffffffffffffffffffffffffffffffffffffffff1681525060036000838152602001908152602001600020600082015181600001556020820151816001015560408201518160020160006101000a81548173ffffffffffffffffffffffffffffffffffffffff021916908373ffffffffffffffffffffffffffffffffffffffff160217905550905050808061015190610249565b915050610075565b5050565b61016e6101698261020d565b610292565b82525050565b6101856101808261023f565b6102b6565b82525050565b60006101978285610174565b6020820191506101a7828461015d565b6014820191508190509392505050565b60006101c28261023f565b91506101cd8361023f565b9250827fffffffffffffffffffffffffffffffffffffffffffffffffffffffffffffffff03821115610202576102016102f1565b5b828201905092915050565b60006102188261021f565b9050919050565b600073ffffffffffffffffffffffffffffffffffffffff82169050919050565b6000819050919050565b60006102548261023f565b91507fffffffffffffffffffffffffffffffffffffffffffffffffffffffffffffffff821415610287576102866102f1565b5b600182019050919050565b600061029d826102a4565b9050919050565b60006102af8261034f565b9050919050565b6000819050919050565b60006102cb8261023f565b91506102d68361023f565b9250826102e6576102e5610320565b5b828206905092915050565b7f4e487b7100000000000000000000000000000000000000000000000000000000600052601160045260246000fd5b7f4e487b7100000000000000000000000000000000000000000000000000000000600052601260045260246000fd5b60008160601b9050919050565b61048a8061036b6000396000f3fe6080604052600436106100345760003560e01c8063454a2ab3146100395780634a3c00de146100555780638b7afe2e14610094575b600080fd5b610053600480360381019061004e91906102eb565b6100bf565b005b34801561006157600080fd5b5061007c600480360381019061007791906102eb565b610257565b60405161008b93929190610390565b60405180910390f35b3480156100a057600080fd5b506100a96102ce565b6040516100b69190610375565b60405180910390f35b3373ffffffffffffffffffffffffffffffffffffffff16316003600083815260200190815260200160002060010154111561012f576040517f08c379a000000000000000000000000000000000000000000000000000000000815260040161012690610355565b60405180910390fd5b3460036000838152602001908152602001600020600101541061015157600080fd5b6003600082815260200190815260200160002060020160009054906101000a900473ffffffffffffffffffffffffffffffffffffffff1673ffffffffffffffffffffffffffffffffffffffff166108fc60036000848152602001908152602001600020600101549081150290604051600060405180830381858888f193505050501580156101e3573d6000803e3d6000fd5b50336003600083815260200190815260200160002060020160006101000a81548173ffffffffffffffffffffffffffffffffffffffff021916908373ffffffffffffffffffffffffffffffffffffffff16021790555034600360008381526020019081526020016000206001018190555050565b6000806000600360008581526020019081526020016000206000015460036000868152602001908152602001600020600101546003600087815260200190815260200160002060020160009054906101000a900473ffffffffffffffffffffffffffffffffffffffff169250925092509193909250565b600047905090565b6000813590506102e58161043d565b92915050565b6000602082840312156102fd57600080fd5b600061030b848285016102d6565b91505092915050565b61031d816103d8565b82525050565b6000610330601b836103c7565b915061033b82610414565b602082019050919050565b61034f8161040a565b82525050565b6000602082019050818103600083015261036e81610323565b9050919050565b600060208201905061038a6000830184610346565b92915050565b60006060820190506103a56000830186610346565b6103b26020830185610346565b6103bf6040830184610314565b949350505050565b600082825260208201905092915050565b60006103e3826103ea565b9050919050565b600073ffffffffffffffffffffffffffffffffffffffff82169050919050565b6000819050919050565b7f596f75722062616c616e6365206973206e6f7420656e6f756774680000000000600082015250565b6104468161040a565b811461045157600080fd5b5056fea26469706673582212206c3d86e070125ce7ce4f4118f5c9c7ff833859d2e6f137cac45173dee7720f5a64736f6c63430008030033",
  "linkReferences": {},
  "deployedLinkReferences": {}
}